{"abi":[{"type":"constructor","inputs":[{"name":"_usdc","type":"address","internalType":"address"}],"stateMutability":"nonpayable"},{"type":"function","name":"activateFlexMode","inputs":[{"name":"user","type":"address","internalType":"address"}],"outputs":[],"stateMutability":"nonpayable"},{"type":"function","name":"emergencyWithdraw","inputs":[{"name":"amount","type":"uint256","internalType":"uint256"}],"outputs":[],"stateMutability":"nonpayable"},{"type":"function","name":"flexModeActive","inputs":[{"name":"","type":"address","internalType":"address"}],"outputs":[{"name":"","type":"bool","internalType":"bool"}],"stateMutability":"view"},{"type":"function","name":"flexModeCooldownUntil","inputs":[{"name":"","type":"address","internalType":"address"}],"outputs":[{"name":"","type":"uint256","internalType":"uint256"}],"stateMutability":"view"},{"type":"function","name":"getUserBalances","inputs":[{"name":"user","type":"address","internalType":"address"}],"outputs":[{"name":"savings","type":"uint256","internalType":"uint256"},{"name":"spendable","type":"uint256","internalType":"uint256"},{"name":"savings_percentage","type":"uint256","internalType":"uint256"},{"name":"flex_active","type":"bool","internalType":"bool"},{"name":"flex_cooldown","type":"uint256","internalType":"uint256"}],"stateMutability":"view"},{"type":"function","name":"initializeUser","inputs":[{"name":"user","type":"address","internalType":"address"},{"name":"_savingsPercentage","type":"uint256","internalType":"uint256"}],"outputs":[],"stateMutability":"nonpayable"},{"type":"function","name":"isFlexModeAvailable","inputs":[{"name":"user","type":"address","internalType":"address"}],"outputs":[{"name":"","type":"bool","internalType":"bool"}],"stateMutability":"view"},{"type":"function","name":"owner","inputs":[],"outputs":[{"name":"","type":"address","internalType":"address"}],"stateMutability":"view"},{"type":"function","name":"savingsPercentage","inputs":[{"name":"","type":"address","internalType":"address"}],"outputs":[{"name":"","type":"uint256","internalType":"uint256"}],"stateMutability":"view"},{"type":"function","name":"splitFunds","inputs":[{"name":"user","type":"address","internalType":"address"},{"name":"amount","type":"uint256","internalType":"uint256"}],"outputs":[],"stateMutability":"nonpayable"},{"type":"function","name":"updateSavingsPercentage","inputs":[{"name":"user","type":"address","internalType":"address"},{"name":"percentage","type":"uint256","internalType":"uint256"}],"outputs":[],"stateMutability":"nonpayable"},{"type":"function","name":"usdcToken","inputs":[],"outputs":[{"name":"","type":"address","internalType":"contract IERC20"}],"stateMutability":"view"},{"type":"function","name":"userSavings","inputs":[{"name":"","type":"address","internalType":"address"}],"outputs":[{"name":"","type":"uint256","internalType":"uint256"}],"stateMutability":"view"},{"type":"function","name":"userSpendable","inputs":[{"name":"","type":"address","internalType":"address"}],"outputs":[{"name":"","type":"uint256","internalType":"uint256"}],"stateMutability":"view"},{"type":"function","name":"withdrawSavings","inputs":[{"name":"user","type":"address","internalType":"address"},{"name":"amount","type":"uint256","internalType":"uint256"}],"outputs":[],"stateMutability":"nonpayable"},{"type":"function","name":"withdrawSpendable","inputs":[{"name":"user","type":"address","internalType":"address"},{"name":"amount","type":"uint256","internalType":"uint256"}],"outputs":[],"stateMutability":"nonpayable"},{"type":"event","name":"Deposit","inputs":[{"name":"user","type":"address","indexed":true,"internalType":"address"},{"name":"amount","type":"uint256","indexed":false,"internalType":"uint256"},{"name":"savingsAmount","type":"uint256","indexed":false,"internalType":"uint256"},{"name":"spendableAmount","type":"uint256","indexed":false,"internalType":"uint256"},{"name":"savingsPercent","type":"uint256","indexed":false,"internalType":"uint256"}],"anonymous":false},{"type":"event","name":"FlexModeActivated","inputs":[{"name":"user","type":"address","indexed":true,"internalType":"address"},{"name":"cooldownUntil","type":"uint256","indexed":false,"internalType":"uint256"}],"anonymous":false},{"type":"event","name":"SavingsPercentageUpdated","inputs":[{"name":"user","type":"address","indexed":true,"internalType":"address"},{"name":"newPercentage","type":"uint256","indexed":false,"internalType":"uint256"}],"anonymous":false},{"type":"event","name":"Withdrawal","inputs":[{"name":"user","type":"address","indexed":true,"internalType":"address"},{"name":"amount","type":"uint256","indexed":false,"internalType":"uint256"},{"name":"isSavings","type":"bool","indexed":false,"internalType":"bool"}],"anonymous":false}],"bytecode":{"object":"0x608060405234801561001057600080fd5b5060405161102638038061102683398101604081905261002f91610062565b60008054336001600160a01b031991821617909155600180549091166001600160a01b0392909216919091179055610092565b60006020828403121561007457600080fd5b81516001600160a01b038116811461008b57600080fd5b9392505050565b610f85806100a16000396000f3fe608060405234801561001057600080fd5b50600436106101005760003560e01c80638da5cb5b11610097578063ca575b1a11610066578063ca575b1a14610287578063d78994621461029a578063e4576e5e146102ad578063e6bc59ca146102cd57600080fd5b80638da5cb5b14610204578063abd3f61214610217578063b848108a14610254578063c9671c331461027457600080fd5b806333b2d1b5116100d357806333b2d1b5146101ab5780633b47cb8c146101be5780635312ea8e146101d157806378e7f794146101e457600080fd5b806302179e5614610105578063116a94721461013d57806311eac8551461015257806316b0387e1461017d575b600080fd5b610128610113366004610e06565b60056020526000908152604090205460ff1681565b60405190151581526020015b60405180910390f35b61015061014b366004610e28565b6102e0565b005b600154610165906001600160a01b031681565b6040516001600160a01b039091168152602001610134565b61019d61018b366004610e06565b60066020526000908152604090205481565b604051908152602001610134565b6101506101b9366004610e06565b6103ce565b6101286101cc366004610e06565b6104be565b6101506101df366004610e52565b61052c565b61019d6101f2366004610e06565b60046020526000908152604090205481565b600054610165906001600160a01b031681565b61022a610225366004610e06565b6106c8565b6040805195865260208601949094529284019190915215156060830152608082015260a001610134565b61019d610262366004610e06565b60026020526000908152604090205481565b610150610282366004610e28565b61075d565b610150610295366004610e28565b610917565b6101506102a8366004610e28565b610be3565b61019d6102bb366004610e06565b60036020526000908152604090205481565b6101506102db366004610e28565b610d9d565b606481111561032b5760405162461bcd60e51b8152602060048201526012602482015271496e76616c69642070657263656e7461676560701b60448201526064015b60405180910390fd5b600a8110156103755760405162461bcd60e51b81526020600482015260166024820152754d696e696d756d20736176696e67732069732031302560501b6044820152606401610322565b6001600160a01b03821660008181526004602052604090819020839055517ff02add67dd510fc3225dd8cafd7cd816d98d1c999ebbb4098dfb6cd7ea57b32d906103c29084815260200190565b60405180910390a25050565b6001600160a01b0381166000908152600660205260409020541580159061040c57506001600160a01b03811660009081526006602052604090205442105b156104595760405162461bcd60e51b815260206004820152601860248201527f466c6578206d6f6465206973206f6e20636f6f6c646f776e00000000000000006044820152606401610322565b6001600160a01b0381166000818152600560205260409020805460ff191660011790557fd9cc62bae83e5ae963eb0e74956e60ab37d3dfa9542c8ad30209e175c1947c206104aa4262093a80610e81565b60405190815260200160405180910390a250565b6001600160a01b03811660009081526005602052604081205460ff166104e657506000919050565b6001600160a01b038216600090815260066020526040812054900361050d57506001919050565b506001600160a01b031660009081526006602052604090205442101590565b6000546001600160a01b031633146105905760405162461bcd60e51b815260206004820152602160248201527f4f6e6c79206f776e65722063616e2063616c6c20746869732066756e6374696f6044820152603760f91b6064820152608401610322565b6001546040516370a0823160e01b81523060048201526001600160a01b03909116906370a0823190602401602060405180830381865afa1580156105d8573d6000803e3d6000fd5b505050506040513d601f19601f820116820180604052508101906105fc9190610e9a565b81111561064b5760405162461bcd60e51b815260206004820152601d60248201527f496e73756666696369656e7420636f6e74726163742062616c616e63650000006044820152606401610322565b60015460005460405163a9059cbb60e01b81526001600160a01b0391821660048201526024810184905291169063a9059cbb906044016020604051808303816000875af11580156106a0573d6000803e3d6000fd5b505050506040513d601f19601f820116820180604052508101906106c49190610eb3565b5050565b6001600160a01b038116600090815260026020908152604080832054600383528184205460049093529083205483928392839283929061070957600a610723565b6001600160a01b0388166000908152600460205260409020545b6001600160a01b039890981660009081526005602090815260408083205460069092529091205492999198975060ff169550909350915050565b336001600160a01b038316146107ae5760405162461bcd60e51b81526020600482015260166024820152754f6e6c7920757365722063616e20776974686472617760501b6044820152606401610322565b6001600160a01b0382166000908152600260205260409020548111156108165760405162461bcd60e51b815260206004820152601c60248201527f496e73756666696369656e7420736176696e67732062616c616e6365000000006044820152606401610322565b6001600160a01b0382166000908152600260205260408120805483929061083e908490610ed5565b909155505060015460405163a9059cbb60e01b81526001600160a01b038481166004830152602482018490529091169063a9059cbb906044016020604051808303816000875af1158015610896573d6000803e3d6000fd5b505050506040513d601f19601f820116820180604052508101906108ba9190610eb3565b6108d65760405162461bcd60e51b815260040161032290610ee8565b60408051828152600160208201526001600160a01b038416917f06e0c61e7e9f4912ee1f3ce060b59207b98f9a232d711462af3166aeeed1250a91016103c2565b6001546040516323b872dd60e01b8152336004820152306024820152604481018390526001600160a01b03909116906323b872dd906064016020604051808303816000875af115801561096e573d6000803e3d6000fd5b505050506040513d601f19601f820116820180604052508101906109929190610eb3565b6109ae5760405162461bcd60e51b815260040161032290610ee8565b6001600160a01b03821660009081526004602052604081205490036109ea576001600160a01b0382166000908152600460205260409020600a90555b6001600160a01b038216600090815260056020526040812054829190819060ff168015610a2d57506001600160a01b038516600090815260066020526040902054155b15610a7a5750600091508290506001610a494262093a80610e81565b6001600160a01b0386166000908152600660209081526040808320939093556005905220805460ff19169055610ac6565b6001600160a01b038516600090815260046020526040902054600a811015610aa05750600a5b6064610aac8287610f16565b610ab69190610f2d565b9350610ac28486610ed5565b9250505b6001600160a01b03851660009081526006602052604090205415801590610b0457506001600160a01b03851660009081526006602052604090205442115b15610b23576001600160a01b0385166000908152600660205260408120555b6001600160a01b03851660009081526002602052604081208054859290610b4b908490610e81565b90915550506001600160a01b03851660009081526003602052604081208054849290610b78908490610e81565b90915550506001600160a01b038516600081815260046020908152604091829020548251888152918201879052818301869052606082015290517f7162984403f6c73c8639375d45a9187dfd04602231bd8e587c415718b5f7e5f99181900360800190a25050505050565b336001600160a01b03831614610c345760405162461bcd60e51b81526020600482015260166024820152754f6e6c7920757365722063616e20776974686472617760501b6044820152606401610322565b6001600160a01b038216600090815260036020526040902054811115610c9c5760405162461bcd60e51b815260206004820152601e60248201527f496e73756666696369656e74207370656e6461626c652062616c616e636500006044820152606401610322565b6001600160a01b03821660009081526003602052604081208054839290610cc4908490610ed5565b909155505060015460405163a9059cbb60e01b81526001600160a01b038481166004830152602482018490529091169063a9059cbb906044016020604051808303816000875af1158015610d1c573d6000803e3d6000fd5b505050506040513d601f19601f82011682018060405250810190610d409190610eb3565b610d5c5760405162461bcd60e51b815260040161032290610ee8565b60408051828152600060208201526001600160a01b038416917f06e0c61e7e9f4912ee1f3ce060b59207b98f9a232d711462af3166aeeed1250a91016103c2565b6001600160a01b03821660009081526004602052604081205490036106c45760008111610dcb57600a610dcd565b805b6001600160a01b0383166000908152600460205260409020555050565b80356001600160a01b0381168114610e0157600080fd5b919050565b600060208284031215610e1857600080fd5b610e2182610dea565b9392505050565b60008060408385031215610e3b57600080fd5b610e4483610dea565b946020939093013593505050565b600060208284031215610e6457600080fd5b5035919050565b634e487b7160e01b600052601160045260246000fd5b80820180821115610e9457610e94610e6b565b92915050565b600060208284031215610eac57600080fd5b5051919050565b600060208284031215610ec557600080fd5b81518015158114610e2157600080fd5b81810381811115610e9457610e94610e6b565b6020808252601490820152731554d110c81d1c985b9cd9995c8819985a5b195960621b604082015260600190565b8082028115828204841417610e9457610e94610e6b565b600082610f4a57634e487b7160e01b600052601260045260246000fd5b50049056fea26469706673582212200a8a95431fd5040485b506ba5f27ef5eb1cce599c55b025f248af1df75ed82d864736f6c63430008130033","linkReferences":{}},"methodIdentifiers":{"activateFlexMode(address)":"33b2d1b5","emergencyWithdraw(uint256)":"5312ea8e","flexModeActive(address)":"02179e56","flexModeCooldownUntil(address)":"16b0387e","getUserBalances(address)":"abd3f612","initializeUser(address,uint256)":"e6bc59ca","isFlexModeAvailable(address)":"3b47cb8c","owner()":"8da5cb5b","savingsPercentage(address)":"78e7f794","splitFunds(address,uint256)":"ca575b1a","updateSavingsPercentage(address,uint256)":"116a9472","usdcToken()":"11eac855","userSavings(address)":"b848108a","userSpendable(address)":"e4576e5e","withdrawSavings(address,uint256)":"c9671c33","withdrawSpendable(address,uint256)":"d7899462"},"id":18}