{"abi":[{"type":"constructor","inputs":[{"name":"_usdc","type":"address","internalType":"address"}],"stateMutability":"nonpayable"},{"type":"function","name":"accounts","inputs":[{"name":"","type":"address","internalType":"address"}],"outputs":[{"name":"balance","type":"uint256","internalType":"uint256"},{"name":"lockUntil","type":"uint256","internalType":"uint256"},{"name":"totalSaved","type":"uint256","internalType":"uint256"}],"stateMutability":"view"},{"type":"function","name":"collectSavings","inputs":[{"name":"user","type":"address","internalType":"address"},{"name":"amount","type":"uint256","internalType":"uint256"}],"outputs":[],"stateMutability":"nonpayable"},{"type":"function","name":"getAccount","inputs":[{"name":"user","type":"address","internalType":"address"}],"outputs":[{"name":"balance","type":"uint256","internalType":"uint256"},{"name":"lockUntil","type":"uint256","internalType":"uint256"},{"name":"totalSaved","type":"uint256","internalType":"uint256"}],"stateMutability":"view"},{"type":"function","name":"owner","inputs":[],"outputs":[{"name":"","type":"address","internalType":"address"}],"stateMutability":"view"},{"type":"function","name":"transferOwnership","inputs":[{"name":"newOwner","type":"address","internalType":"address"}],"outputs":[],"stateMutability":"nonpayable"},{"type":"function","name":"usdc","inputs":[],"outputs":[{"name":"","type":"address","internalType":"contract IERC20"}],"stateMutability":"view"},{"type":"function","name":"withdraw","inputs":[{"name":"amount","type":"uint256","internalType":"uint256"}],"outputs":[],"stateMutability":"nonpayable"},{"type":"event","name":"Saved","inputs":[{"name":"user","type":"address","indexed":true,"internalType":"address"},{"name":"amount","type":"uint256","indexed":false,"internalType":"uint256"},{"name":"lockUntil","type":"uint256","indexed":false,"internalType":"uint256"}],"anonymous":false},{"type":"event","name":"Withdrawn","inputs":[{"name":"user","type":"address","indexed":true,"internalType":"address"},{"name":"amount","type":"uint256","indexed":false,"internalType":"uint256"}],"anonymous":false}],"bytecode":{"object":"0x60a060405234801561001057600080fd5b5060405161082d38038061082d83398101604081905261002f91610052565b600080546001600160a01b031916331790556001600160a01b0316608052610082565b60006020828403121561006457600080fd5b81516001600160a01b038116811461007b57600080fd5b9392505050565b6080516107836100aa60003960008181609c015281816102a2015261042701526107836000f3fe608060405234801561001057600080fd5b506004361061007d5760003560e01c80638da5cb5b1161005b5780638da5cb5b14610124578063a91cf51914610137578063f2fde38b1461014a578063fbcbc0f11461015d57600080fd5b80632e1a7d4d146100825780633e413bee146100975780635e5c06e2146100db575b600080fd5b610095610090366004610624565b610198565b005b6100be7f000000000000000000000000000000000000000000000000000000000000000081565b6040516001600160a01b0390911681526020015b60405180910390f35b6101096100e9366004610659565b600160208190526000918252604090912080549181015460029091015483565b604080519384526020840192909252908201526060016100d2565b6000546100be906001600160a01b031681565b61009561014536600461067b565b61038e565b610095610158366004610659565b610590565b61010961016b366004610659565b6001600160a01b031660009081526001602081905260409091208054918101546002909101549192909190565b3360009081526001602081905260409091209081015442101561021c5760405162461bcd60e51b815260206004820152603160248201527f5661756c74206973207374696c6c206c6f636b65642120536176696e6773206460448201527034b9b1b4b83634b7329034b99035b2bc9760791b60648201526084015b60405180910390fd5b805482111561026d5760405162461bcd60e51b815260206004820152601a60248201527f496e73756666696369656e74207661756c742062616c616e63650000000000006044820152606401610213565b8181600001600082825461028191906106bb565b909155505060405163a9059cbb60e01b8152336004820152602481018390527f00000000000000000000000000000000000000000000000000000000000000006001600160a01b03169063a9059cbb906044016020604051808303816000875af11580156102f3573d6000803e3d6000fd5b505050506040513d601f19601f8201168201806040525081019061031791906106d4565b6103555760405162461bcd60e51b815260206004820152600f60248201526e151c985b9cd9995c8819985a5b1959608a1b6044820152606401610213565b60405182815233907f7084f5476618d8e60b11ef0d7d3f06914655adb8793e28ff7f018d4c76d505d59060200160405180910390a25050565b6000546001600160a01b031633146103b85760405162461bcd60e51b8152600401610213906106f6565b600081116103fb5760405162461bcd60e51b815260206004820152601060248201526f43616e6e6f742073617665207a65726f60801b6044820152606401610213565b6040516323b872dd60e01b81526001600160a01b038381166004830152306024830152604482018390527f000000000000000000000000000000000000000000000000000000000000000016906323b872dd906064016020604051808303816000875af1158015610470573d6000803e3d6000fd5b505050506040513d601f19601f8201168201806040525081019061049491906106d4565b6104e05760405162461bcd60e51b815260206004820181905260248201527f5472616e73666572206661696c6564202d20636865636b20617070726f76616c6044820152606401610213565b6001600160a01b038216600090815260016020526040812080549091839183919061050c90849061073a565b9250508190555081816002016000828254610527919061073a565b9091555061053a90504262278d0061073a565b600182018190556040516001600160a01b038516917ffe7f0d9312e396d50f323cae11d7ebeada5139e12ce702baf7c3d3897b04bf339161058391868252602082015260400190565b60405180910390a2505050565b6000546001600160a01b031633146105ba5760405162461bcd60e51b8152600401610213906106f6565b6001600160a01b0381166106025760405162461bcd60e51b815260206004820152600f60248201526e496e76616c6964206164647265737360881b6044820152606401610213565b600080546001600160a01b0319166001600160a01b0392909216919091179055565b60006020828403121561063657600080fd5b5035919050565b80356001600160a01b038116811461065457600080fd5b919050565b60006020828403121561066b57600080fd5b6106748261063d565b9392505050565b6000806040838503121561068e57600080fd5b6106978361063d565b946020939093013593505050565b634e487b7160e01b600052601160045260246000fd5b818103818111156106ce576106ce6106a5565b92915050565b6000602082840312156106e657600080fd5b8151801515811461067457600080fd5b60208082526024908201527f4f6e6c79204e61697261466c6f77206261636b656e642063616e2063616c6c206040820152637468697360e01b606082015260800190565b808201808211156106ce576106ce6106a556fea2646970667358221220aa9f2c13e4f4f27edc974408d835b74d5c3eb5af36b2ee7ab3f730ed12fc144764736f6c63430008130033","linkReferences":{}},"methodIdentifiers":{"accounts(address)":"5e5c06e2","collectSavings(address,uint256)":"a91cf519","getAccount(address)":"fbcbc0f1","owner()":"8da5cb5b","transferOwnership(address)":"f2fde38b","usdc()":"3e413bee","withdraw(uint256)":"2e1a7d4d"},"id":17}